:0300000002034DAB
:0C034D00787FE4F6D8FD75814E02039421
:060003002D2D2D0D0A0059
:1006DB00C2DAE5D854FC4403F5D812073AD2DA2231
:1005A200E4F5081200260508E508C3940A40F4128F
:1005B20006DB1206B612064512000E1202B1539461
:0B05C200CFE5F7543F4480F5F7D2AFBF
:0105CD00220B
:1005CE007F007EFDE4784DF608F60FEFAC06700165
:1005DE000E14F5828C83E4F0784E06E61870010650
:0B05EE00784EE6B400E418E6B403DF2A
:0105F90022DF
:0B0709007BFF7A0079037D0502066982
:100575001206DB1205CE1205A2439180D287E5391A
:1005850075F00584E5F07004D287800CE53975F0C7
:0D0595000784E5F07002C28712070980E1BB
:03000B0002049F4D
:04049F00C0E0C0D029
:1004A300758CC6758A76D2FF051FE51FC394054078
:1004B30031751F000537E537700205360538052FFE
:1004C300E52F7002052EE538946440160535E535B1
:1004D300700205347538000539E539943C400375DD
:0204E3003900DE
:0504E500D0D0D0E03290
:10000E00E58954FC4401F589758CC6758A66D2A9BA
:05001E00C28DD28C220E
:04073A007F6CDFFEF3
:01073E002298
:0A07140000007F0B7E06DEFEDFFC16
:01071E0022B8
:0C0026007F017E907D6ADDFEDEFCDFFACB
:0100320022AB
:1006EB003F065B4F666D7D077F6F79403976775E8E
:1006A300103D40404040404040404040404040407A
:0206B300400005
:1006450053877F53947FC29FD29EC29DC2CDC2CC99
:10065500E58954CF4420F589758DE8C2ABD28ED299
:040665009CD2AC2255
:0A072A00C2998F993099FDC29922FF
:060669008B088A09890AD2
:10066F00E4FEEEC39D5015AB08AA09A90A8E827548
:0C067F0083001201A8FF12072A0E80E67B
:01068B00224C
:030023000206C909
:1006C900751300309903C29932309805C2988599FB
:0106D9009987
:0106DA0032ED
:1006B60090FD037400F0A3743BF07B017AFD790092
:0306C60002062009
:03073F000203D9D9
:02003B008F092B
:10003D00E5296409602090FD05E521F0A3E522F096
:10004D00A3E525F0A3E527F0852625852321852425
:10005D0022852827800C8527288521238522248524
:10006D002526852E30852F31D2FFE50975F01EA48A
:10007D002402AD2912014A2406AD2212014A240898
:10008D00FFE435F0FEE521120159240AFFE435F0B5
:10009D00FEAD2512016F2404FFE435F0FEAD2712ED
:1000AD000179240CFFE435F0FEA200E4331201596E
:1000BD00240EFFE435F0FEAD2FE52F12016F241055
:1000CD00FFE435F0FEE52E1201642412FFE435F055
:1000DD00FEAD2BE52B1201852414FFE435F0FEE572
:1000ED002A1201642416FFE435F0FEAD2DE52D1224
:1000FD0001852418FFE435F0FEE52CFD120179246D
:10010D001AFFE435F0FEAD33E5331205FAE5097556
:10011D00F01EA4241CFFE435F0FEE532FD1205FAB5
:10012D00E5296409601690FD07E0F52590FD05E0D1
:0C013D00F521A3E0F52290FD08E0F52775
:1001490022FFE435F0FE1205FAE50975F01EA42236
:10015900FD1205FAE50975F01EA422FD1205FAE55E
:100169000975F01EA4221205FAE50975F01EA422EC
:100179001205FAD2FFE50975F01EA4221205FAE567
:060189000975F01EA4221E
:060734007E001204EA221F
:1002B1007F011207348F297F021207348F277F03B2
:1002C1001207347521008F227F04120734EFFEE4F8
:1002D1002522F522EE3521F5217F051207348F25E0
:1002E1008525267F06120734EF24FF92007F08122E
:1002F1000734EF7F00FEC006C0077F07120734EF07
:10030100FDD0E02DF52FD0E03400F52EF530852F0E
:10031100317F09120734752A008F2B7F0A120734A7
:10032100EFFEE4252BF52BEE352AF52A7F0C12077B
:1003310034EF7F00FEC006C0077F0B120734EFFDCC
:0C034100D0E02DF52DD0E03400F52C228A
:10068C001206FB7B0174002510F974EE350FFA226B
:07069C00AB0EAA0FA910220A
:100620008B098A0A890B7B017AEE7900C003C0022C
:10063000C001AB09AA0AA90B12024185093A850A31
:050640003B850B3C228C
:0E06FB00C2AFE5F754F94406F5F775C9E222DF
:0B071F00E4F5C953F7F9D2AF0207144C
:06044F008B0E8A0F8910DC
:100455001206FBE4F5117B017AEE790075F01EE5D5
:1004650011A4F58285F0831201A8FFC39464501589
:1004750012069CE5111201D512069C900001EF129F
:1004850001E702071F0511E511C3940440C81207CF
:090495001F12069C74061201D529
:01049E00223B
:0404EA008E098F0ADE
:1004EE00E4F50BFB7A00790C12044FE50CB4060907
:1004FE00E4F50CFDAF0C1205341206FBE50C75F09D
:10050E001EA47B012400F974EE35F0FAE50A25E00D
:10051E00FFE50933FEE92FF9EA3EFA12018FF50BDA
:05052E0012071FAF0BD6
:0105330022A5
:0605FA008E0F8F108D1121
:10060000E4F51212068C12018FF51212071FE51283
:0F0610006511600B12068CE5111201D512071F40
:01061F0022B8
:100534008F0EED64016024EF75F01EA4FFAEF07D14
:10054400011205FAE50E600414FF80027F03EF75C3
:10055400F01EA4FFAEF07D641205FAAB3AAA3BA9E3
:100564003C900003120209F58285F083AF0E02026B
:0105740094F2
:0803D9008E148F158D168B1791
:1003E1007B007A00791812044FE518C39404501960
:1003F100E5199462400EE518B40305E4F518800C84
:1004010005188008E4F51A8006E4F518751A01E567
:100411001AB40104E4FD8016E51875F01EA4FFAEC0
:10042100F00519AD191205FAE51760077D01AF183E
:10043100020534E51525E0FDE51433FCE51875F0FA
:0D0441001EA42DFFE5F03CFEAD161205FADD
:01044E00228B
:10035900020575E493A3F8E493A34003F68001F240
:1003690008DFF48029E493A3F85407240CC8C333A5
:10037900C4540F4420C8834004F456800146F6DF74
:10038900E4800B01020408102040809006A3E47E5B
:10039900019360BCA3FF543F30E509541FFEE49369
:1003A900A360010ECF54C025E060A840B8E493A330
:1003B900FAE493A3F8E493A3C8C582C8CAC583CA5B
:1003C900F0A3C8C582C8CAC583CADFE9DEE780BE13
:0106B5000044
:10018F00BB010689828A83E0225002E722BBFE026E
:09019F00E32289828A83E49322A1
:1001A800BB010CE58229F582E5833AF583E022500C
:1001B80006E92582F8E622BBFE06E92582F8E22256
:0D01C800E58229F582E5833AF583E4932270
:1001D500BB010689828A83F0225002F722BBFE0109
:0201E500F32203
:1001E700F8BB010DE58229F582E5833AF583E8F04E
:1001F700225006E92582C8F622BBFE05E92582C8FA
:02020700F222E1
:10020900BB0110E58229F582E5833AF583E0F5F033
:10021900A3E0225009E92582F886F008E622BBFE10
:100229000AE92582F8E2F5F008E222E5832AF58356
:08023900E993F5F0A3E993221B
:10024100BB011A89828A83D0F0D0E0F8D0E0F9D0DE
:10025100E0FAD0E0FBE8C0E0C0F002029F5016E9EE
:10026100F8D083D082D0E0F9D0E0FAD0E0FBC082B0
:10027100C083020296BBFE16E9F8D083D082D0E09B
:0F028100F9D0E0FAD0E0FBC082C0830202A822CD
:060290008A838982E473F9
:09029600EBF608EAF608E9F6228D
:09029F00EBF0A3EAF0A3E9F02260
:0902A800EBF208EAF208E9F22287
:00000001FF
