:03000000020C1BD4
:0C0C1B00787FE4F6D8FD75814C020C6275
:100B8200540FFF120FD0AE08050874002EF582E450
:100B920034FDF583EFF0AF08050874002FF582E409
:100BA20034FDF583745DF0AF08050874002FF582FB
:100BB200E434FDF583742DF0AF08050874002FF5B9
:100BC20082E434FDF58322E4FAF9F81201C8EF2435
:100BD20030FFAE08050874002E22E4F9F890FD6893
:100BE2001202F21201C8AC00AD01AE02AF03227EC6
:100BF20000CFCDCFCECCCE1200B5EF2430FF22AE47
:100C02002EAF2F7C000200B5C4540FFF020FD0F0AC
:090C1200AE2EAF2F7C277D1022CD
:10104B00C2DAE5D854FC4403F5D8121099D2DA224F
:100EF800E4F5081200260508E508C3940A40F41230
:100F0800104B121026120F8212000E90FD68120369
:100F18001600000000120A275394CFE5F7543F4407
:050F280080F5F7D2AFD7
:010F2D0022A1
:100F2E007F007EFDE4784BF608F60FEFAC067001FD
:100F3E000E14F5828C83E4F0784C06E618700106E8
:0B0F4E00784CE6B400E418E6B403DFC2
:010F59002275
:100FE500E539C394147B007A00793B50047D438036
:070FF500027D4412040A22F0
:070FC900C4540F48540FFF50
:100FD000EF70037F3022EFC3940AEF50042430FFF8
:050FE000222437FF226E
:0E066300C3E5359401E5349400500302089A73
:10067100E4F508FBFAF97D4112040A120A27120B6C
:10068100BA744D120BB97479120BB97445120BB9C6
:100691007465120BB97470120BB97472120BB974C0
:1006A1006F120BB9746D120BB97454120BB97465D6
:1006B100120BB97473120BB97474120BB9743A1228
:1006C1000BB9740D120BB9740A120BB9745B120BCE
:1006D100B97454120BB97469120BB9746D120BB958
:1006E1007465120BB9743A120C11120BF9120BD476
:1006F100120BC1EF120C111200B57E037FE8120B31
:10070100F3120BD4120BC1EFF0AE2EAF2F7C037D91
:10071100E81200B57F64120BF1120BD4120BC1EF7A
:10072100F07D64120C017F0A120BF1120BD4120B33
:10073100C1EFF07D0A120C01ED2430FF120B887419
:100741005BF0E52A120C0A120BD4120BC1EFF0E593
:100751002A120C0B120BD4120BC1EFF0E52AC4F8CC
:1007610054F0C8E52B120FC9120BD4120BC1EFF0D4
:10077100E52B120B82745BF07F00120FD0120BD4A9
:10078100120BC1EFF0E529120B82745BF0E5211227
:100791000C0A120BD4120BC1EFF0E521120C0B1253
:1007A1000BD4120BC1EFF0E521C4F854F0C8E522D7
:1007B100120FC9120BD4120BC1EFF0E522120B82FA
:1007C100745BF07F00120FD0120BD4120BC1EFF04B
:1007D100E525120B82745BF07B407A42790F780039
:1007E10090FD681202F2120BCD120BC1EFF07B40AB
:1007F1007A42790F7800120BDF7BA07A8679017833
:1008010000120BCD120BC1EFF07BA07A8679017833
:1008110000120BDFE47B107A27120BCB120BC1EF16
:10082100F07B107A27120BDCE47BE87A03120BCB06
:10083100120BC1EFF07BE87A03120BDC7B64120B25
:10084100C9120BC1EFF0E47B64FA120BDD7B0A12D3
:100851000BC9120BC1EFF0E47B0AFAF9F890FD68BD
:100861001202F21201C8EB120BD1120BC1EFF012FE
:100871000BBA745D120BB9740D120BB9740A120B19
:10088100B9740D120BB9740AF07B017AFD7900ADD0
:0908910008120FA6E4F534F53558
:01089A00223B
:100EBD0012104B120F2E120EF8439180D287E53986
:100ECD0075F00584E5F07004D287800CE53975F076
:100EDD000784E5F07002C2877B007A0079367D4287
:0B0EED0012040A120FE512066380D306
:03000B00020DE4FF
:040DE400C0E0C0D0DB
:100DE800758CC6758A76D2FF053AE53AC3940540F4
:100DF80031753A000537E537700205360538052F95
:100E0800E52F7002052EE538946440160535E53562
:100E1800700205347538000539E539943C4003758E
:020E280039008F
:050E2A00D0D0D0E03241
:10000E00E58954FC4401F589758CC6758A66D2A9BA
:05001E00C28DD28C220E
:041099007F6CDFFE8B
:01109D002230
:0A10790000007F0B7E06DEFEDFFCA8
:01108300224A
:0C0026007F017E907D6ADDFEDEFCDFFACB
:0100320022AB
:10105B003F065B4F666D7D077F6F79403976775E14
:10101300103B404040404040404040404040404002
:0210230040008B
:100F820053877F53947FC29FD29EC29DC2CDC2CC53
:100F9200E58954CF4420F589758DE8C2ABD28ED253
:040FA2009CD2AC220F
:0A108F00C2998F993099FDC2992291
:060FA6008B098A0A890B89
:100FAC00E4FEEEC39D5015AB09AA0AA90B8E8275FF
:0C0FBC008300120054FF12108F0E80E61C
:010FC8002206
:030023000210398F
:10103900751800309903C29932309805C29885997C
:01104900990D
:01104A003273
:100AD900E4FAF9F81201C8745B2FF58274103EF537
:100AE90083E493AB09AA0AA90B22E4F9F890FD68FB
:100AF9001202F21201C8AC00AD01AE02AF032278B6
:100B09004CE675F01EA4FF90FD6C120347E92FF91E
:100B1900EA35F0FA22E075F06484E5F075F00A84AC
:100B290090105B932212025A90FD6812030A90FDFD
:100B3900680202FEE075F00A84E5F090105B9322EA
:100B4900E075F0648490105B9322120054FFE4FC7A
:100B5900FDFE2290FD680202F274642FF582E434EE
:100B6900FDF5832212009390FD652212009390FDFA
:090B7900662212009390FD672230
:1010260090FD6F7408F0A3749BF07B017AFD7964E0
:03103600020F5A4C
:03109E00020CA79A
:06040A008B098A0A890B30
:10041000E4784CF6ED24BE70030204F91470030274
:10042000051A1470030205A424036003020662E4A3
:10043000784BF612106B90FD6C120347784BE6FF79
:1004400075F01EA4F58285F083120054FE120B6233
:10045000EEF0121084784B06E6C3940440D5E4789D
:100460004BF6784BE6FFC394045013120B62E0C3C3
:1004700094645005E608F68005784B0680E4121077
:100480006B120B08900016120B53120B31C000C0F8
:1004900001C002C003120B08900018120B53780819
:1004A00012028BD003D002D001D000120B2EC0005C
:1004B000C001C002C003120B0890001A120B53783F
:1004C0001012028BD003D002D001D000120B2EC02C
:1004D00000C001C002C003120B0890001C120B5395
:1004E000781812028BD003D002D001D00012025A29
:1004F00090FD6812030A021084120AEC12010AC36A
:100500009428E5F094005003020662E4F5F012012D
:100510006D7B01E4FDFFFE02109E90FD64120B490D
:10052000120AEC12008190FD64120B1E547F120A15
:10053000EC90000212009390FD64120B3D900004B9
:10054000120093900006E4120B6D120B49547F9039
:100550000008120B6D120B1E90000A120B6D120B8D
:100560003D90000C120093900001E4120B74120BEA
:1005700049900003120B74120B1E900005120B74AD
:10058000120B3D900007120B7B120B4990000912D1
:100590000B7B120B1E90000B120B7B120B3D90007D
:1005A0000D02065F7B407A42790F7800120B5C12D5
:1005B0000ADD9000061200937B407A42790F7800A2
:1005C000120AF67BA07A86790178001201C8745B62
:1005D0002FF58274103EF583E493547F120AEC9059
:1005E00000081200937BA07A8679017800120AF63F
:1005F000E47B107A27120ADB90000A1200937B102A
:100600007A27120AF3E47BE87A03120ADB90000CE3
:100610001200937BE87A03120AF37B64120AD990E2
:100620000005120093E47B64FA120AF47B0A120AB2
:10063000D9900007120093E47B0AFAF9F8120B5CD8
:100640001201C8745B2BF58274103A120AE890000C
:100650000912009390000BE412009390000DE41235
:02066000009305
:010662002275
:02089B008F09C3
:10089D00E5296409602090FD00E521F0A3E522F033
:1008AD00A3E525F0A3E527F08526258523218524BD
:1008BD0022852827800C85272885212385222485BC
:1008CD002526852E30852F31D2FFE50975F01EA422
:1008DD002402AD291209E22406AD221209E22408F0
:1008ED00FFE435F0FEE5211209F1240AFFE435F0AD
:1008FD00FEAD25120A072404FFE435F0FEAD2712E4
:10090D000A11240CFFE435F0FEA200E4331209F1C4
:10091D00240EFFE435F0FEAD2FE52F120A0724104B
:10092D00FFE435F0FEE52E1209FC2412FFE435F04C
:10093D00FEAD2BE52B120A1D2414FFE435F0FEE568
:10094D002A1209FC2416FFE435F0FEC006C007127A
:10095D000B5CE4AD07D007D006120A1D2418FFE486
:10096D0035F0FEC006C007120B5C7808120278E461
:10097D00AD07D007D006120A11241AFFE435F0FE98
:10098D00C006C007120B5C7810120278E4AD07D0D8
:10099D0007D006120FFCE50975F01EA4241CFFE418
:1009AD0035F0FEC006C007120B5C7818120278AD48
:1009BD0007D007D006120FFCE5296409601690FDDB
:1009CD0002E0F52590FD00E0F521A3E0F52290FD74
:0409DD0003E0F52717
:1009E10022FFE435F0FE120FFCE50975F01EA4228A
:1009F100FD120FFCE50975F01EA422FD120FFCE5A6
:100A01000975F01EA422120FFCE50975F01EA4223F
:100A1100120FFCD2FFE50975F01EA422120FFCE5AE
:060A21000975F01EA4227D
:060003007E00120E2F2208
:100A2700E4FFFEFDFC120B37C31202677008FBFAE6
:100A3700F97D4112040A7F011200038F297F0212F8
:100A470000038F277F031200037521008F227F0485
:100A5700120003EFFEE42522F522EE3521F5217F72
:100A6700051200038F258525267F06120003EF2434
:100A7700FF92007F08120003EF7F00FEC006C00749
:100A87007F07120003EFFDD0E02DF52FD0E03400F3
:100A9700F52EF530852F317F09120003752A008F57
:100AA7002B7F0A120003EFFEE4252BF52BEE352AE8
:100AB700F52A7F0C120003EF7F00FEC006C0077FF8
:100AC7000B120003EFFDD0E02DF52DD0E03400F53B
:020AD7002C22CF
:100E7900AB1DAA1EA91F90000412029EEF2401FFB8
:100E8900E43EFEE43DFDE43CFC9000040202CE7B1E
:100E9900017AEE790075F01EE516A4F58285F083D6
:100EA900120054F51722AB1DAA1EA91F22AB13AAC3
:040EB90014A9152241
:100F5A008B098A0A890B7B017AEE7900C003C002E9
:100F6A00C001AB09AA0AA90B90000812035085090F
:080F7A001D850A1E850B1F22D4
:0E106B00C2AFE5F754F94406F5F775C9E22265
:0B108400E4F5C953F7F9D2AF02107970
:060D86008B138A1489158D
:100D8C0012106BE4F516120E98120EAF85168275C2
:100D9C0083001200930516E516B404EA12108412AF
:100DAC00106BE4F516120E98C394645016120EB61E
:100DBC00E516120081120EB6900001E51712009391
:100DCC000210840516E516C3940440D9121084123F
:070DDC000EB674061200813F
:010DE30022ED
:040E2F008E098F0A8F
:100E3300E4F50BFB7A00790C120D86E50CB4060978
:100E4300E4F50CFDAF0C120D2312106BE50C75F0DD
:100E53001EA47B012400F974EE35F0FAE50A25E0BF
:100E6300FFE50933FEE92FF9EA3EFA12003BF50BE1
:050E7300121084AF0B1A
:010E78002257
:100FFC00E4F51412106B7B0174002FF974EE3EFAB9
:07100C00ED120081021084C7
:100D23008F13ED64016049EF75F01EA4FFAEF07DF3
:100D330001120FFCE513600414FF80027F03EF75BB
:100D4300F01EA4FFAEF07D64120FFC120EAF8513EC
:100D5300827583007401120093E513600414FF800D
:100D6300027F03120EAF8F827583007464120093A7
:100D7300120EAF90000B120135F58285F083AF138D
:030D83000203ADBB
:080CA7008E0C8F0D8D0E8B0FDA
:100CAF007B007A007910120D86E510C39404501959
:100CBF00E5119462400EE510B40305E4F510800CC5
:100CCF0005108008E4F5128006E4F510751201E5B1
:100CDF0012B40107120E79E4FD8019120E79E51096
:100CEF0075F01EA4FFAEF00511AD11120FFCE50F4C
:100CFF0060077D01AF10020D23E50D25E0FDE50C2A
:100D0F0033FCE51075F01EA42DFFE5F03CFEAD0E93
:030D1F00120FFCB4
:010D220022AE
:100C2700020EBDE493A3F8E493A34003F68001F218
:100C370008DFF48029E493A3F85407240CC8C333CE
:100C4700C4540F4420C8834004F456800146F6DF9D
:100C5700E4800B0102040810204080901013E47E0A
:100C6700019360BCA3FF543F30E509541FFEE49392
:100C7700A360010ECF54C025E060A840B8E493A359
:100C8700FAE493A3F8E493A3C8C582C8CAC583CA84
:100C9700F0A3C8C582C8CAC583CADFE9DEE780BE3C
:0110250000CA
:10003B00BB010689828A83E0225002E722BBFE02C3
:09004B00E32289828A83E49322F6
:10005400BB010CE58229F582E5833AF583E0225061
:1000640006E92582F8E622BBFE06E92582F8E222AB
:0D007400E58229F582E5833AF583E49322C5
:10008100BB010689828A83F0225002F722BBFE015E
:02009100F32258
:10009300F8BB010DE58229F582E5833AF583E8F0A3
:1000A300225006E92582C8F622BBFE05E92582C84F
:0200B300F22237
:1000B500BC000BBE0029EF8DF084FFADF022E4CC2F
:1000C500F875F008EF2FFFEE33FEEC33FCEE9DECF8
:1000D500984005FCEE9DFE0FD5F0E9E4CEFD22ED3E
:1000E500F8F5F0EE8420D21CFEADF075F008EF2F88
:1000F500FFED33FD4007985006D5F0F222C398FD79
:050105000FD5F0EA2215
:10010A00BB010A89828A83E0F5F0A3E022500687C0
:10011A00F009E71922BBFE07E3F5F009E319228982
:0B012A00828A83E493F5F074019322B5
:10013500BB0110E58229F582E5833AF583E0F5F008
:10014500A3E0225009E92582F886F008E622BBFEE5
:100155000AE92582F8E2F5F008E222E5832AF5832B
:08016500E993F5F0A3E99322F0
:10016D00BB010A89828A83F0E5F0A3F0225006F7DD
:0F017D0009A7F01922BBFE06F3E5F009F31922DA
:10018C0075F008758200EF2FFFEE33FECD33CDCC2A
:10019C0033CCC58233C5829BED9AEC99E5829840AD
:1001AC000CF582EE9BFEED9AFDEC99FC0FD5F0D68A
:1001BC00E4CEFBE4CDFAE4CCF9A88222B800C1B9B4
:1001CC000059BA002DEC8BF084CFCECDFCE5F0CBF2
:1001DC00F97818EF2FFFEE33FEED33FDEC33FCEB2B
:1001EC0033FB10D703994004EB99FB0FD8E5E4F9E6
:1001FC00FA227818EF2FFFEE33FEED33FDEC33FCD3
:10020C00C933C910D7059BE99A4007EC9BFCE99AC6
:10021C00F90FD8E0E4C9FAE4CCFB2275F010EF2F0B
:10022C00FFEE33FEED33FDCC33CCC833C810D7070B
:10023C009BEC9AE899400AED9BFDEC9AFCE899F846
:0E024C000FD5F0DAE4CDFBE4CCFAE4C8F922D9
:0D025A00EF4BFFEE4AFEED49FDEC48FC22A3
:10026700EB9FF5F0EA9E42F0E99D42F0E89C45F0ED
:010277002264
:10027800E8600FECC313FCED13FDEE13FEEF13FF64
:03028800D8F12288
:10028B00E8600FEFC333FFEE33FEED33FDEC33FCD1
:03029B00D8F12275
:10029E00BB010DE58229F582E5833AF5830202F270
:1002AE005007E92582F80203AFBBFE07E92582F865
:1002BE000203BBE58229F582E5833AF5830203C783
:1002CE00BB010DE58229F582E5833AF58302030A27
:1002DE005007E92582F80203D7BBFE07E92582F80D
:0402EE000203E32202
:0C02F200E0FCA3E0FDA3E0FEA3E0FF227F
:0C02FE00E0F8A3E0F9A3E0FAA3E0FB2283
:0C030A00ECF0A3EDF0A3EEF0A3EFF02266
:10031600A8828583F0D083D08212032D12032D127A
:10032600032D12032DE473E493A3C583C5F0C5839F
:10033600C8C582C8F0A3C583C5F0C583C8C582C831
:010346002294
:09034700E0FBA3E0FAA3E0F922B7
:10035000BB0120E58229F582E5833AF583D0F0D010
:10036000E0F8D0E0F9D0E0FAD0E0FBE8C0E0C0F07F
:100370000203F85018E92582F8D083D082D0E0F942
:10038000D0E0FAD0E0FBC082C0830203EFBBFE18CE
:10039000E92582F8D083D082D0E0F9D0E0FAD0E02D
:0903A000FBC082C08302040122AB
:0603A9008A838982E473DF
:0C03AF00E6FC08E6FD08E6FE08E6FF227A
:0C03BB00E2FC08E2FD08E2FE08E2FF227E
:1003C700E493FC740193FD740293FE740393FF227C
:0C03D700ECF608EDF608EEF608EFF62252
:0C03E300ECF208EDF208EEF208EFF22256
:0903EF00EBF608EAF608E9F62233
:0903F800EBF0A3EAF0A3E9F02206
:09040100EBF208EAF208E9F2222C
:00000001FF
