:03000000020C915E
:0C0C9100787FE4F6D8FD75814D020CD888
:100ACF00540FFF121051AE08050874002EF582E482
:100ADF0034FDF583EFF0AF08050874002FF582E4BD
:100AEF0034FDF583745DF0AF08050874002FF582AF
:100AFF00E434FDF583742DF0AF08050874002FF56D
:100B0F0082E434FDF58322E4FAF9F81201DAEF24D6
:100B1F0030FFAE08050874002E22E4F9F890FD713D
:100B2F001203041201DAAC00AD01AE02AF03227E54
:100B3F0000CFCDCFCECCCE1200C7EF2430FF22AEE8
:100B4F002EAF2F7C000200C7C4540FFF021051F0CC
:090B5F00AE2EAF2F7C277D102281
:1010EA00C2DAE5D854FC4403F5D812114ED2DA22FA
:100FA100E4F5081200260508E508C3940A40F41286
:100FB10010EA120E9312100312000E90FD7112032B
:100FC1002800000000120A1D5394CFE5F7543F4456
:050FD10080F5F7D2AF2E
:010FD60022F8
:100FD7007F007EFDE4781EF608F60FEFAC06700181
:100FE7000E14F5828C83E4F0781F06E6187001066C
:0B0FF700781FE6B400E418E6B403DF46
:0110020022CB
:10109800E539C394147B007A00793E50047D43807F
:0710A800027D441203FF2248
:07104A00C4540F48540FFFCE
:10105100EF70037F3022EFC3940AEF50042430FF76
:05106100222437FF22EC
:0E066700C3E5359401E534940050030208B950
:10067500E4F508FBFAF97D411203FF120A1D120B7E
:1006850007744D120B067479120B067445120B068E
:100695007465120B067470120B067472120B0674D5
:1006A5006F120B06746D120B067454120B067465EB
:1006B500120B067473120B067474120B06743A123D
:1006C5000B06740D120B06740A120B06745B120BE3
:1006D500067454120B067469120B06746D120B0620
:1006E5007465120B06743A120B5E120B46120B213F
:1006F500120B0EEF120B5E1200C77E037FE8120B82
:1007050040120B21120B0EEFF0AE2EAF2F7C037DA6
:10071500E81200C77F64120B3E120B21120B0EEF7D
:10072500F07D64120B4E7F0A120B3E120B21120B49
:100735000EEFF07D0A120B4EED2430FF120AD57430
:100745005BF0E52A120B57120B21120B0EEFF0E5A9
:100755002A120B58120B21120B0EEFF0E52AC4F8E2
:1007650054F0C8E52B12104A120B21120B0EEFF0B4
:10077500E52B120ACF745BF07F00121051120B218A
:10078500120B0EEFF0E529120ACF745BF0E521128A
:100795000B57120B21120B0EEFF0E521120B58121D
:1007A5000B21120B0EEFF0E521C4F854F0C8E52239
:1007B50012104A120B21120B0EEFF0E522120ACF8E
:1007C500745BF07F00121051120B21120B0EEFF02B
:1007D500E525120ACF745BF07B807A9679987800CC
:1007E50090FD71120304120B1A120B0EEFF07B80B1
:1007F5007A9679987800120B2C7B407A42790F789B
:1008050000120B1A120B0EEFF07B407A42790F782B
:1008150000120B2C7BA07A8679017800120B1A1234
:100825000B0EEFF07BA07A8679017800120B2CE491
:100835007B107A27120B18120B0EEFF07B107A271C
:10084500120B29E47BE87A03120B18120B0EEFF05A
:100855007BE87A03120B297B64120B16120B0EEF41
:10086500F0E47B64FA120B2A7B0A120B16120B0EAC
:10087500EFF0E47B0AFAF9F890FD71120304120116
:10088500DAEB120B1E120B0EEFF0120B07745D1252
:100895000B06740D120B06740A120B06740D120B5F
:1008A50006740AF07B017AFD7900AD08121027E481
:0408B500F534F535EC
:0108B900221C
:100F2C001210EA120FD7120FA1439180D287E53924
:100F3C0075F00584E5F07004C287800CE53975F016
:100F4C000784E5F07002D2877B007A0079367D4207
:0B0F5C001203FF12109812066780D3EA
:03000B00020EE101
:040EE100C0E0C0D0DD
:100EE500758CC6758A76D2FF051DE51DC394054030
:100EF50031751D000537E537700205360538052FB4
:100F0500E52F7002052EE538946440160535E53564
:100F1500700205347538000539E539943C40037590
:020F2500390091
:050F2700D0D0D0E03243
:10000E00E58954FC4401F589758CC6758A66D2A9BA
:05001E00C28DD28C220E
:04114E007F6CDFFED5
:01115200227A
:0A11250000007F0B7E06DEFEDFFCFB
:01112F00229D
:0C0026007F017E907D6ADDFEDEFCDFFACB
:0100320022AB
:1010FA003F065B4F666D7D077F6F79403976775E75
:1010C500103E40404040404040404040404040404D
:0210D5004000D9
:1010030053877F53947FC29FD29EC29DC2CDC2CCD1
:10101300E58954CF4420F589758DE8C2ABD28ED2D1
:041023009CD2AC228D
:0A113B00C2998F993099FDC29922E4
:061027008B098A0A890B07
:10102D00E4FEEEC39D5015AB09AA0AA90B8E82757D
:0C103D008300120054FF12113B0E80E6ED
:011049002284
:030023000210D8F0
:1010D800751C00309903C29932309805C2988599D9
:0110E800996E
:0110E90032D4
:100B6800D2FF90FD7BE075F002A4FFAEF0AD107CE3
:100B7800001200B5EF22E4FAF9F81201DA74FA2F3C
:100B8800F58274103EF583E493AB09AA0AA90B22F7
:100B9800E4F9F890FD711203041201DAAC00AD011A
:100BA800AE02AF0322E075F06484E5F075F00A84C4
:100BB8009010FA932212026C90FD7112031C90FDA2
:100BC80071020310E075F00A84E5F09010FA9322A0
:100BD800E075F064849010FA932290FD710203048A
:100BE80012009390FD6E2212009390FD6F22120066
:050BF8009390FD702246
:100E93007B017AEE790090FD7512036290FD787400
:100EA30008F0A374BAF090FD687464F090FD7AF0D2
:100EB30090FD69740FF090FD7BF090FD6A7404F06F
:100EC30090FD7CF090FD6B14F090FD7DF090FD6C37
:0E0ED3007406F090FD7EF07AFD796D0200034A
:1010AF008E0C8F0D8D0E8B0F120E93AB0FAD0EAFEF
:0610BF000DAE0C020BFD5A
:0603FF008B098A0A890B3C
:10040500E4781FF6ED24BE70030204E114700302C4
:10041500050214700302058C2403600302064A7862
:100425001F76FFE418F690FD7CE0FF781EE6FDC31D
:100435009F5039E4FFFE121080781EE6FE246DF50C
:1004450082E434FDF583EFF008E6B4FF1A746D2EEF
:10045500F582E434FDF583E0FF90FD7AE0FEEFC31D
:100465009E500418E608F6781E0680BA781FE6B492
:10047500FF04E4F68001007F0B12064B120BC0C08F
:1004850000C001C002C0037F0C12064B780812029F
:100495009DD003D002D001D000120BBDC000C00119
:1004A500C002C0037F0D120659781012029DD003B9
:1004B500D002D001D000120BBDC000C001C002C0E7
:1004C500037F0E120659781812029DD003D002D070
:1004D50001D00012026C90FD7102031C120B9112E7
:1004E500011CC39428E5F09400500302064AE4F584
:1004F500F012017F7B01E4FDFFFE0210AF90FD6D60
:10050500120BD8120B9112008190FD6D120BAD5498
:100515007F120B9190000212009390FD6D120BCC8F
:10052500900004120093900006E4120BE8120BD819
:10053500547F900008120BE8120BAD90000A120BC5
:10054500E8120BCC90000C120093900001E4120B02
:10055500EF120BD8900003120BEF120BAD900005B4
:10056500120BEF120BCC900007120BF6120BD89062
:100575000009120BF6120BAD90000B120BF6120BC5
:10058500CC90000D0206477B407A42790F78001225
:100595000BE2120B829000061200937B407A42799F
:1005A5000F7800120B9B7BA07A86790178001201E7
:1005B500DA74FA2FF58274103EF583E493547F12B2
:1005C5000B919000081200937BA07A867901780040
:1005D500120B9BE47B107A27120B8090000A120005
:1005E500937B107A27120B98E47BE87A03120B8031
:1005F50090000C1200937BE87A03120B987B64122F
:100605000B7E900005120093E47B64FA120B997B34
:100615000A120B7E900007120093E47B0AFAF9F8A0
:10062500120BE21201DA74FA2BF58274103A120BEE
:100635008D90000912009390000BE4120093900036
:050645000DE41200931A
:10064A0022781FE6FD7E00121080E4FCFDFE22786F
:0D065A001FE6FD7E00121080E4FCFDFE2274
:0208BA008F109D
:1008BC00E5296409602090FD64E521F0A3E522F0B0
:1008CC00A3E525F0A3E527F085262585232185249E
:1008DC0022852827800C852728852123852224859D
:1008EC002526852E30852F31120B682402FFE43E1D
:1008FC00FEAD29121066120B6A2406FFE43EFEAD13
:10090C0022121066120B6A2408FFE43EFEE521FD5C
:10091C00121066120B6A240AFFE43EFEAD2512107B
:10092C0066120B6A2404FFE43EFEAD271210661219
:10093C000B68240CFFE43EFEA200E433FD121066AB
:10094C00120B6A240EFFE43EFEAD2FE52F1210664B
:10095C00120B6A2410FFE43EFEE52EFD1210661207
:10096C000B6A2412FFE43EFEAD2BE52B121066122F
:10097C000B6A2414FFE43EFEE52AFD121066120BEE
:10098C006A2416FFE43EFEC006C007120BE2E4AD7B
:10099C0007D007D006121066120B6A2418FFE43E2B
:1009AC00FEC006C007120BE2780812028AE4AD07FB
:1009BC00D007D006121066120B68241AFFE43EFE14
:1009CC00C006C007120BE2781012028AE4AD07D001
:1009DC0007D006121066120B6A241CFFE43EFEC000
:1009EC0006C007120BE2781812028AAD07D007D0A6
:1009FC0006121066E5296409601690FD66E0F5257F
:100A0C0090FD64E0F521A3E0F52290FD67E0F52769
:010A1C0022B7
:0D1118008F09120E93AF097E00120F67229F
:100A1D00E4FFFEFDFC120BC6C31202797008FBFA4F
:100A2D00F97D411203FF7F011211188F297F0212E8
:100A3D0011188F277F031211187521008F227F0443
:100A4D00121118EFFEE42522F522EE3521F5217F56
:100A5D00051211188F258525267F06121118EF24F2
:100A6D00FF92007F08121118EF7F00FEC006C0072D
:100A7D007F07121118EFFDD0E02DF52FD0E03400D7
:100A8D00F52EF530852F317F09121118752A008F3B
:100A9D002B7F0A121118EFFEE4252BF52BEE352ACC
:100AAD00F52A7F0C121118EF7F00FEC006C0077FDC
:100ABD000B121118EFFDD0E02DF52DD0E03400F51F
:020ACD002C22D9
:100D1D0090FD7F12035990000E12005475F002A43D
:100D2D00FFAEF022AD1A7C001200B5900008120340
:100D3D006B8F828E83120054F51B90FD7F02035939
:100D4D009000041202B0EF2401FFE43EFEE43DFDED
:100D5D00E43CFC9000040202E07C001200B590001F
:100D6D000812036BE92FF9EA3EFA2290000D0200FA
:100D7D005490000F120054FF2233FEE92FF9EA3E82
:100D8D00FA02003BAB17AA18A91922900010020015
:010D9D005401
:081145007F067E01DEFEDFFCE7
:01114D00227F
:0600030090FD7F02036284
:0E110A00C2AFE5F754F94406F5F775C9E222C5
:0B113000E4F5C953F7F9D2AF021145F6
:060D9E008B178A18891969
:100DA40012110AE4F51A120D47120D7EE51AC39FBB
:100DB4005015120D23120D31851A82758300E51B1F
:100DC400120093051A80DF12113012110AE4F51A89
:100DD400120D47120D7EE51AC39F502A120D2312DD
:100DE4000D31120D78FFE51BC39F5016120D91E5CE
:100DF4001A120081120D91900001E51B120093025A
:100E04001130051A80CA121130120D4790001112C8
:080E14000054120D911200813F
:010E1C0022B3
:040F67008E0A8F0B54
:100F6B00E4F50CFB7A00790D120D9E120D479000E3
:100F7B0011120054B50D09E4F50DFDAF0D120E1D48
:100F8B00120D1DAD0D120D66E50B25E0FFE50A12E6
:050F9B000D86F50CFFBE
:010FA000222E
:061080008E0C8F0D8D0E99
:10108600120D1D120D66E50D25E0FFE50C120D860D
:01109600FF5A
:011097002236
:10106600E4F51812110A120D4790000812036B8F4F
:0A107600828E83ED12009302113008
:100E1D008F17ED6401605C120D1DAD177C00120083
:100E2D00B57D01121066E517600414FF8007120DE1
:100E3D0047120D98FFEFFD7C00120D1D1200B5122B
:100E4D000D78FD121066120D47851782758300749B
:100E5D0001120093120D78FFE517600414FE800750
:100E6D00120D47120D98FE120D478E82758300EFFD
:100E7D00120093120D4790000B120147F58285F079
:060E8D0083AF1702039F72
:080BFD008E108F118D128B1375
:100C05007B007A007914120D9E120D47120D7EE5B8
:100C150014C39F5020120D7824FEFFE515D39F4085
:100C25000F120D98B51405E4F514800C0514800811
:100C3500E4F5168006E4F514751601E516B401070A
:100C4500120D4DE4FD801D120D47120D4D120D23A1
:100C5500AD147C001200B50515AD15121066E5132F
:100C650060077D01AF14020E1D120D1DAD147C0031
:100C75001200B5AC06AD07E51125E0FFE51033FE22
:0B0C8500ED2FFFEC3EFEAD12121066DA
:010C90002241
:100C9D00020F2CE493A3F8E493A34003F68001F232
:100CAD0008DFF48029E493A3F85407240CC8C33358
:100CBD00C4540F4420C8834004F456800146F6DF27
:100CCD00E4800B01020408102040809010C5E47EE2
:100CDD00019360BCA3FF543F30E509541FFEE4931C
:100CED00A360010ECF54C025E060A840B8E493A3E3
:100CFD00FAE493A3F8E493A3C8C582C8CAC583CA0E
:100D0D00F0A3C8C582C8CAC583CADFE9DEE780BEC5
:0110D7000018
:10003B00BB010689828A83E0225002E722BBFE02C3
:09004B00E32289828A83E49322F6
:10005400BB010CE58229F582E5833AF583E0225061
:1000640006E92582F8E622BBFE06E92582F8E222AB
:0D007400E58229F582E5833AF583E49322C5
:10008100BB010689828A83F0225002F722BBFE015E
:02009100F32258
:10009300F8BB010DE58229F582E5833AF583E8F0A3
:1000A300225006E92582C8F622BBFE05E92582C84F
:0200B300F22237
:1000B500EF8DF0A4A8F0CF8CF0A428CE8DF0A42E5F
:0200C500FE2219
:1000C700BC000BBE0029EF8DF084FFADF022E4CC1D
:1000D700F875F008EF2FFFEE33FEEC33FCEE9DECE6
:1000E700984005FCEE9DFE0FD5F0E9E4CEFD22ED2C
:1000F700F8F5F0EE8420D21CFEADF075F008EF2F76
:10010700FFED33FD4007985006D5F0F222C398FD66
:050117000FD5F0EA2203
:10011C00BB010A89828A83E0F5F0A3E022500687AE
:10012C00F009E71922BBFE07E3F5F009E319228970
:0B013C00828A83E493F5F074019322A3
:10014700BB0110E58229F582E5833AF583E0F5F0F6
:10015700A3E0225009E92582F886F008E622BBFED3
:100167000AE92582F8E2F5F008E222E5832AF58319
:08017700E993F5F0A3E99322DE
:10017F00BB010A89828A83F0E5F0A3F0225006F7CB
:0F018F0009A7F01922BBFE06F3E5F009F31922C8
:10019E0075F008758200EF2FFFEE33FECD33CDCC18
:1001AE0033CCC58233C5829BED9AEC99E58298409B
:1001BE000CF582EE9BFEED9AFDEC99FC0FD5F0D678
:1001CE00E4CEFBE4CDFAE4CCF9A88222B800C1B9A2
:1001DE000059BA002DEC8BF084CFCECDFCE5F0CBE0
:1001EE00F97818EF2FFFEE33FEED33FDEC33FCEB19
:1001FE0033FB10D703994004EB99FB0FD8E5E4F9D4
:10020E00FA227818EF2FFFEE33FEED33FDEC33FCC0
:10021E00C933C910D7059BE99A4007EC9BFCE99AB4
:10022E00F90FD8E0E4C9FAE4CCFB2275F010EF2FF9
:10023E00FFEE33FEED33FDCC33CCC833C810D707F9
:10024E009BEC9AE899400AED9BFDEC9AFCE899F834
:0E025E000FD5F0DAE4CDFBE4CCFAE4C8F922C7
:0D026C00EF4BFFEE4AFEED49FDEC48FC2291
:10027900EB9FF5F0EA9E42F0E99D42F0E89C45F0DB
:010289002252
:10028A00E8600FECC313FCED13FDEE13FEEF13FF52
:03029A00D8F12276
:10029D00E8600FEFC333FFEE33FEED33FDEC33FCBF
:0302AD00D8F12263
:1002B000BB010DE58229F582E5833AF5830203044B
:1002C0005007E92582F80203A1BBFE07E92582F861
:1002D0000203ADE58229F582E5833AF5830203B98D
:1002E000BB010DE58229F582E5833AF58302031C03
:1002F0005007E92582F80203C9BBFE07E92582F809
:040300000203D522FD
:0C030400E0FCA3E0FDA3E0FEA3E0FF226C
:0C031000E0F8A3E0F9A3E0FAA3E0FB2270
:0C031C00ECF0A3EDF0A3EEF0A3EFF02254
:10032800A8828583F0D083D08212033F12033F1244
:10033800033F12033FE473E493A3C583C5F0C58369
:10034800C8C582C8F0A3C583C5F0C583C8C582C81F
:010358002282
:09035900E0FBA3E0FAA3E0F922A5
:09036200EBF0A3EAF0A3E9F0229C
:10036B00BB010DE58229F582E5833AF5830203593A
:10037B005007E92582F80203E1BBFE07E92582F865
:10038B000203EAE58229F582E5833AF5830203F35A
:06039B008A838982E473ED
:0C03A100E6FC08E6FD08E6FE08E6FF2288
:0C03AD00E2FC08E2FD08E2FE08E2FF228C
:1003B900E493FC740193FD740293FE740393FF228A
:0C03C900ECF608EDF608EEF608EFF62260
:0C03D500ECF208EDF208EEF208EFF22264
:0903E100E6FB08E6FA08E6F92241
:0903EA00E2FB08E2FA08E2F92244
:0C03F300E493FB740193FA740293F92266
:00000001FF
