:03000000020C36B9
:0C0C3600787FE4F6D8FD75814C020C7D3F
:100B9D00540FFF120FEBAE08050874002EF582E41A
:100BAD0034FDF583EFF0AF08050874002FF582E4EE
:100BBD0034FDF583745DF0AF08050874002FF582E0
:100BCD00E434FDF583742DF0AF08050874002FF59E
:100BDD0082E434FDF58322E4FAF9F81201C8EF241A
:100BED0030FFAE08050874002E22E4F9F890FD6878
:100BFD001202F21201C8AC00AD01AE02AF03227EAB
:100C0D0000CFCDCFCECCCE1200B5EF2430FF22AE2B
:100C1D002EAF2F7C000200B5C4540FFF020FEBF076
:090C2D00AE2EAF2F7C277D1022B2
:10106600C2DAE5D854FC4403F5D81210B4D2DA2219
:100F1300E4F5081200260508E508C3940A40F41214
:100F23001066121041120F9D12000E90FD681203FD
:100F33001600000000120A425394CFE5F7543F44D1
:050F430080F5F7D2AFBC
:010F48002286
:100F49007F007EFDE4784BF608F60FEFAC067001E2
:100F59000E14F5828C83E4F0784C06E618700106CD
:0B0F6900784CE6B400E418E6B403DFA7
:010F7400225A
:10100000E539C394147B007A00793B50047D43801A
:07101000027D4412040A22D4
:070FE400C4540F48540FFF35
:100FEB00EF70037F3022EFC3940AEF50042430FFDD
:050FFB00222437FF2253
:0E066300C3E5359401E534940050030208B558
:10067100E4F508FBFAF97D4112040A120A42120B51
:10068100D5744D120BD47479120BD47445120BD45A
:100691007465120BD47470120BD47472120BD4746F
:1006A1006F120BD4746D120BD47454120BD4746585
:1006B100120BD47473120BD47474120BD4743A12D7
:1006C1000BD4740D120BD4740A120BD4745B120B7D
:1006D100D47454120BD47469120BD4746D120BD4EC
:1006E1007465120BD4743A120C2C120C14120BEF09
:1006F100120BDCEF120C2C1200B57E037FE8120CFA
:100701000E120BEF120BDCEFF0AE2EAF2F7C037D40
:10071100E81200B57F64120C0C120BEF120BDCEF28
:10072100F07D64120C1C7F0A120C0C120BEF120BE1
:10073100DCEFF07D0A120C1CED2430FF120BA374C8
:100741005BF0E52A120C25120BEF120BDCEFF0E542
:100751002A120C26120BEF120BDCEFF0E52AC4F87B
:1007610054F0C8E52B120FE4120BEF120BDCEFF083
:10077100E52B120B9D745BF07F00120FEB120BEF58
:10078100120BDCEFF0E529120B9D745BF0E52112F1
:100791000C25120BEF120BDCEFF0E521120C2612E7
:1007A1000BEF120BDCEFF0E521C4F854F0C8E522A1
:1007B100120FE4120BEF120BDCEFF0E522120B9D8E
:1007C100745BF07F00120FEB120BEF120BDCEFF0FA
:1007D100E525120B9D745BF07B807A967998780001
:1007E10090FD681202F2120BE8120BDCEFF07B8035
:1007F1007A9679987800120BFA7B407A42790F78D1
:1008010000120BE8120BDCEFF07B407A42790F7893
:1008110000120BFA7BA07A8679017800120BE8129C
:100821000BDCEFF07BA07A8679017800120BFAE4F9
:100831007B107A27120BE6120BDCEFF07B107A2784
:10084100120BF7E47BE87A03120BE6120BDCEFF0F4
:100851007BE87A03120BF77B64120BE4120BDCEFDB
:10086100F0E47B64FA120BF87B0A120BE4120BDC46
:10087100EFF0E47B0AFAF9F890FD681202F2120136
:10088100C8EB120BEC120BDCEFF0120BD5745D12FE
:100891000BD4740D120BD4740A120BD4740D120BF9
:1008A100D4740AF07B017AFD7900AD08120FC1E41E
:0408B100F534F535F0
:0108B5002220
:100ED800121066120F49120F13439180D287E53919
:100EE80075F00584E5F07004D287800CE53975F05B
:100EF8000784E5F07002C2877B007A0079367D426C
:0B0F080012040A12100012066380D3CE
:03000B00020DFFE4
:040DFF00C0E0C0D0C0
:100E0300758CC6758A76D2FF053AE53AC3940540D8
:100E130031753A000537E537700205360538052F79
:100E2300E52F7002052EE538946440160535E53547
:100E3300700205347538000539E539943C40037573
:020E4300390074
:050E4500D0D0D0E03226
:10000E00E58954FC4401F589758CC6758A66D2A9BA
:05001E00C28DD28C220E
:0410B4007F6CDFFE70
:0110B8002215
:0A10940000007F0B7E06DEFEDFFC8D
:01109E00222F
:0C0026007F017E907D6ADDFEDEFCDFFACB
:0100320022AB
:101076003F065B4F666D7D077F6F79403976775EF9
:10102E00103B4040404040404040404040404040E7
:02103E00400070
:100F9D0053877F53947FC29FD29EC29DC2CDC2CC38
:100FAD00E58954CF4420F589758DE8C2ABD28ED238
:040FBD009CD2AC22F4
:0A10AA00C2998F993099FDC2992276
:060FC1008B098A0A890B6E
:100FC700E4FEEEC39D5015AB09AA0AA90B8E8275E4
:0C0FD7008300120054FF1210AA0E80E6E6
:010FE30022EB
:0300230002105474
:10105400751800309903C29932309805C298859961
:0110640099F2
:011065003258
:100AF400E4FAF9F81201C874762FF58274103EF501
:100B040083E493AB09AA0AA90B22E4F9F890FD68DF
:100B14001202F21201C8AC00AD01AE02AF0322789A
:100B24004CE675F01EA4FF90FD6C120347E92FF903
:100B3400EA35F0FA22E075F06484E5F075F00A8491
:100B4400901076932212025A90FD6812030A90FDC7
:100B5400680202FEE075F00A84E5F09010769322B4
:100B6400E075F064849010769322120054FFE4FC44
:100B7400FDFE2290FD680202F274642FF582E434D3
:100B8400FDF5832212009390FD652212009390FDDF
:090B9400662212009390FD672215
:1010410090FD6F7408F0A374B6F07B017AFD7964AA
:03105100020F7516
:0310B900020CC264
:06040A008B098A0A890B30
:10041000E4784CF6ED24BE70030204F91470030274
:10042000051A1470030205A424036003020662E4A3
:10043000784BF612108690FD6C120347784BE6FF5E
:1004400075F01EA4F58285F083120054FE120B7D18
:10045000EEF012109F784B06E6C3940440D5E47882
:100460004BF6784BE6FFC394045013120B7DE0C3A8
:1004700094645005E608F68005784B0680E4121077
:1004800086120B23900012120B6E120B4CC000C090
:1004900001C002C003120B23900014120B6E7808E7
:1004A00012028BD003D002D001D000120B49C00041
:1004B000C001C002C003120B2390001A120B6E7809
:1004C0001012028BD003D002D001D000120B49C011
:1004D00000C001C002C003120B2390001C120B6E5F
:1004E000781812028BD003D002D001D00012025A29
:1004F00090FD6812030A02109F120B0712010AC333
:100500009428E5F094005003020662E4F5F012012D
:100510006D7B01E4FDFFFE0210B990FD64120B64D7
:10052000120B0712008190FD64120B39547F120BDD
:100530000790000212009390FD64120B5890000483
:10054000120093900006E4120B88120B64547F9003
:100550000008120B88120B3990000A120B88120B3C
:100560005890000C120093900001E4120B8F120BB4
:1005700064900003120B8F120B39900005120B8F41
:10058000120B58900007120B96120B649000091280
:100590000B96120B3990000B120B96120B58900011
:1005A0000D02065F7B407A42790F7800120B7712BA
:1005B0000AF89000061200937B407A42790F780087
:1005C000120B117BA07A86790178001201C874762B
:1005D0002FF58274103EF583E493547F120B07903D
:1005E00000081200937BA07A8679017800120B1123
:1005F000E47B107A27120AF690000A1200937B100F
:100600007A27120B0EE47BE87A03120AF690000CAC
:100610001200937BE87A03120B0E7B64120AF490AB
:100620000005120093E47B64FA120B0F7B0A120A96
:10063000F4900007120093E47B0AFAF9F8120B77A2
:100640001201C874762BF58274103A120B039000D5
:100650000912009390000BE412009390000DE41235
:02066000009305
:010662002275
:0208B6008F09A8
:1008B800E5296409602090FD00E521F0A3E522F018
:1008C800A3E525F0A3E527F08526258523218524A2
:1008D80022852827800C85272885212385222485A1
:1008E8002526852E30852F31D2FFE50975F01EA407
:1008F8002402AD291209FD2406AD221209FD24089F
:10090800FFE435F0FEE521120A0C240AFFE435F075
:10091800FEAD25120A222404FFE435F0FEAD2712AD
:100928000A2C240CFFE435F0FEA200E433120A0C72
:10093800240EFFE435F0FEAD2FE52F120A22241015
:10094800FFE435F0FEE52E120A172416FFE435F011
:10095800FEAD2BE52B120A382418FFE435F0FEE52E
:100968002A120A172412FFE435F0FEC006C0071247
:100978000B77E4AD07D007D006120A382414FFE439
:1009880035F0FEC006C007120B777808120278E42B
:10099800AD07D007D006120A2C241AFFE435F0FE62
:1009A800C006C007120B777810120278E4AD07D0A2
:1009B80007D006121017E50975F01EA4241CFFE4E1
:1009C80035F0FEC006C007120B777818120278AD12
:1009D80007D007D006121017E5296409601690FDA4
:1009E80002E0F52590FD00E0F521A3E0F52290FD59
:0409F80003E0F527FC
:1009FC0022FFE435F0FE121017E50975F01EA42253
:100A0C00FD121017E50975F01EA422FD121017E552
:100A1C000975F01EA422121017E50975F01EA42208
:100A2C00121017D2FFE50975F01EA422121017E55B
:060A3C000975F01EA42262
:060003007E00120E4A22ED
:100A4200E4FFFEFDFC120B52C31202677008FBFAB0
:100A5200F97D4112040A7F011200038F297F0212DD
:100A620000038F277F031200037521008F227F046A
:100A7200120003EFFEE42522F522EE3521F5217F57
:100A8200051200038F258525267F06120003EF2419
:100A9200FF92007F08120003EF7F00FEC006C0072E
:100AA2007F07120003EFFDD0E02DF52FD0E03400D8
:100AB200F52EF530852F317F0B120003752A008F3A
:100AC2002B7F0C120003EFFEE4252BF52BEE352ACB
:100AD200F52A7F0C120003EF7F00FEC006C0077FDD
:100AE2000B120003EFFDD0E02DF52DD0E03400F520
:020AF2002C22B4
:100E9400AB1DAA1EA91F90000412029EEF2401FF9D
:100EA400E43EFEE43DFDE43CFC9000040202CE7B03
:100EB400017AEE790075F01EE516A4F58285F083BB
:100EC400120054F51722AB1DAA1EA91F22AB13AAA8
:040ED40014A9152226
:100F75008B098A0A890B7B017AEE7900C003C002CE
:100F8500C001AB09AA0AA90B9000081203508509F4
:080F95001D850A1E850B1F22B9
:0E108600C2AFE5F754F94406F5F775C9E2224A
:0B109F00E4F5C953F7F9D2AF0210943A
:060DA1008B138A14891572
:100DA700121086E4F516120EB3120ECA8516827556
:100DB70083001200930516E516B404EA12109F1279
:100DC7001086E4F516120EB3C394645016120ED1B2
:100DD700E516120081120ED1900001E5171200935B
:100DE70002109F0516E516C3940440D912109F12EE
:070DF7000ED1740612008109
:010DFE0022D2
:040E4A008E098F0A74
:100E4E00E4F50BFB7A00790C120DA1E50CB4060942
:100E5E00E4F50CFDAF0C120D3E121086E50C75F08C
:100E6E001EA47B012400F974EE35F0FAE50A25E0A4
:100E7E00FFE50933FEE92FF9EA3EFA12003BF50BC6
:050E8E0012109FAF0BE4
:010E9300223C
:10101700E4F5141210867B0174002FF974EE3EFA82
:07102700ED12008102109F91
:100D3E008F13ED64016049EF75F01EA4FFAEF07DD8
:100D4E0001121017E513600414FF80027F03EF7584
:100D5E00F01EA4FFAEF07D64121017120ECA85139A
:100D6E00827583007401120093E513600414FF80F2
:100D7E00027F03120ECA8F82758300746412009371
:100D8E00120ECA90000B120135F58285F083AF1357
:030D9E000203ADA0
:080CC2008E0C8F0D8D0E8B0FBF
:100CCA007B007A007910120DA1E510C39404501923
:100CDA00E5119462400EE510B40305E4F510800CAA
:100CEA0005108008E4F5128006E4F510751201E596
:100CFA0012B40107120E94E4FD8019120E94E51045
:100D0A0075F01EA4FFAEF00511AD11121017E50F14
:100D1A0060077D01AF10020D3EE50D25E0FDE50CF3
:100D2A0033FCE51075F01EA42DFFE5F03CFEAD0E78
:030D3A001210177D
:010D3D002293
:100C4200020ED8E493A3F8E493A34003F68001F2E2
:100C520008DFF48029E493A3F85407240CC8C333B3
:100C6200C4540F4420C8834004F456800146F6DF82
:100C7200E4800B010204081020408090102EE47ED4
:100C8200019360BCA3FF543F30E509541FFEE49377
:100C9200A360010ECF54C025E060A840B8E493A33E
:100CA200FAE493A3F8E493A3C8C582C8CAC583CA69
:100CB200F0A3C8C582C8CAC583CADFE9DEE780BE21
:0110400000AF
:10003B00BB010689828A83E0225002E722BBFE02C3
:09004B00E32289828A83E49322F6
:10005400BB010CE58229F582E5833AF583E0225061
:1000640006E92582F8E622BBFE06E92582F8E222AB
:0D007400E58229F582E5833AF583E49322C5
:10008100BB010689828A83F0225002F722BBFE015E
:02009100F32258
:10009300F8BB010DE58229F582E5833AF583E8F0A3
:1000A300225006E92582C8F622BBFE05E92582C84F
:0200B300F22237
:1000B500BC000BBE0029EF8DF084FFADF022E4CC2F
:1000C500F875F008EF2FFFEE33FEEC33FCEE9DECF8
:1000D500984005FCEE9DFE0FD5F0E9E4CEFD22ED3E
:1000E500F8F5F0EE8420D21CFEADF075F008EF2F88
:1000F500FFED33FD4007985006D5F0F222C398FD79
:050105000FD5F0EA2215
:10010A00BB010A89828A83E0F5F0A3E022500687C0
:10011A00F009E71922BBFE07E3F5F009E319228982
:0B012A00828A83E493F5F074019322B5
:10013500BB0110E58229F582E5833AF583E0F5F008
:10014500A3E0225009E92582F886F008E622BBFEE5
:100155000AE92582F8E2F5F008E222E5832AF5832B
:08016500E993F5F0A3E99322F0
:10016D00BB010A89828A83F0E5F0A3F0225006F7DD
:0F017D0009A7F01922BBFE06F3E5F009F31922DA
:10018C0075F008758200EF2FFFEE33FECD33CDCC2A
:10019C0033CCC58233C5829BED9AEC99E5829840AD
:1001AC000CF582EE9BFEED9AFDEC99FC0FD5F0D68A
:1001BC00E4CEFBE4CDFAE4CCF9A88222B800C1B9B4
:1001CC000059BA002DEC8BF084CFCECDFCE5F0CBF2
:1001DC00F97818EF2FFFEE33FEED33FDEC33FCEB2B
:1001EC0033FB10D703994004EB99FB0FD8E5E4F9E6
:1001FC00FA227818EF2FFFEE33FEED33FDEC33FCD3
:10020C00C933C910D7059BE99A4007EC9BFCE99AC6
:10021C00F90FD8E0E4C9FAE4CCFB2275F010EF2F0B
:10022C00FFEE33FEED33FDCC33CCC833C810D7070B
:10023C009BEC9AE899400AED9BFDEC9AFCE899F846
:0E024C000FD5F0DAE4CDFBE4CCFAE4C8F922D9
:0D025A00EF4BFFEE4AFEED49FDEC48FC22A3
:10026700EB9FF5F0EA9E42F0E99D42F0E89C45F0ED
:010277002264
:10027800E8600FECC313FCED13FDEE13FEEF13FF64
:03028800D8F12288
:10028B00E8600FEFC333FFEE33FEED33FDEC33FCD1
:03029B00D8F12275
:10029E00BB010DE58229F582E5833AF5830202F270
:1002AE005007E92582F80203AFBBFE07E92582F865
:1002BE000203BBE58229F582E5833AF5830203C783
:1002CE00BB010DE58229F582E5833AF58302030A27
:1002DE005007E92582F80203D7BBFE07E92582F80D
:0402EE000203E32202
:0C02F200E0FCA3E0FDA3E0FEA3E0FF227F
:0C02FE00E0F8A3E0F9A3E0FAA3E0FB2283
:0C030A00ECF0A3EDF0A3EEF0A3EFF02266
:10031600A8828583F0D083D08212032D12032D127A
:10032600032D12032DE473E493A3C583C5F0C5839F
:10033600C8C582C8F0A3C583C5F0C583C8C582C831
:010346002294
:09034700E0FBA3E0FAA3E0F922B7
:10035000BB0120E58229F582E5833AF583D0F0D010
:10036000E0F8D0E0F9D0E0FAD0E0FBE8C0E0C0F07F
:100370000203F85018E92582F8D083D082D0E0F942
:10038000D0E0FAD0E0FBC082C0830203EFBBFE18CE
:10039000E92582F8D083D082D0E0F9D0E0FAD0E02D
:0903A000FBC082C08302040122AB
:0603A9008A838982E473DF
:0C03AF00E6FC08E6FD08E6FE08E6FF227A
:0C03BB00E2FC08E2FD08E2FE08E2FF227E
:1003C700E493FC740193FD740293FE740393FF227C
:0C03D700ECF608EDF608EEF608EFF62252
:0C03E300ECF208EDF208EEF208EFF22256
:0903EF00EBF608EAF608E9F62233
:0903F800EBF0A3EAF0A3E9F02206
:09040100EBF208EAF208E9F2222C
:00000001FF
